:020000040800F2
:1000000060080020CD010008A11600087111000849
:100010000116000863080008BF280008000000005F
:100020000000000000000000000000003D1B000870
:100030003D0B000800000000F51800080D1D000829
:10004000E7010008E7010008E7010008E7010008F0
:10005000E7010008E7010008E7010008E7010008E0
:10006000E7010008E7010008E7010008E7010008D0
:10007000E7010008E7010008E7010008E7010008C0
:10008000E7010008E7010008E7010008E7010008B0
:10009000E7010008E7010008E70100089D0B0008E0
:1000A000E7010008E7010008E7010008E701000890
:1000B000E7010008B11D0008E7010008E70100089A
:1000C000E7010008E7010008E7010008E701000870
:1000D000E70100083D220008E9240008E7010008C4
:1000E000E7010008E7010008E7010008E701000850
:1000F000E7010008E7010008E7010008E701000840
:10010000E7010008E7010008E7010008E70100082F
:10011000E7010008E7010008E7010008E70100081F
:10012000E7010008E7010008E7010008E70100080F
:1001300000F002F800F03AF80AA090E8000C8244BF
:100140008344AAF10107DA4501D100F02FF8AFF29C
:10015000090EBAE80F0013F0010F18BFFB1A43F0A5
:10016000010318470430000024300000103A24BF77
:1001700078C878C1FAD8520724BF30C830C144BF0C
:1001800004680C607047000000230024002500264E
:10019000103A28BF78C1FBD8520728BF30C148BFEA
:1001A0000B6070471FB51FBD10B510BD00F08BF878
:1001B0001146FFF7F7FF02F085FB00F0A9F803B442
:1001C000FFF7F2FF03BC00F0B1F8000009488047D8
:1001D00009480047FEE7FEE7FEE7FEE7FEE7FEE729
:1001E000FEE7FEE7FEE7FEE704480549054A064B41
:1001F000704700001D1D000831010008600200204A
:10020000600800206004002060040020401ECAB284
:1002100010F8011F8A4202D00029F9D1002070474E
:1002200030B505460B462A4613F8014B12F8010B70
:1002300008B1A042F8D01CB1002802D06D1CF1E733
:10024000284630BD0022CBB210F8011B994200D1E4
:10025000421E0029F8D110467047421E12F8013F95
:10026000002BFBD111F8013B002B02F8013BF9D127
:1002700070474FF0000200B5134694469646203969
:1002800022BFA0E80C50A0E80C50B1F12001BFF44F
:10029000F7AF090728BFA0E80C5048BF0CC05DF8B5
:1002A00004EB890028BF40F8042B08BF704748BF03
:1002B00020F8022B11F0804F18BF00F8012B704777
:1002C000704770477047754600F02CF8AE46050041
:1002D0006946534620F00700854618B020B5FFF761
:1002E00083FFBDE820404FF000064FF000074FF0BD
:1002F00000084FF0000B21F00701AC46ACE8C00944
:10030000ACE8C009ACE8C009ACE8C0098D4670474C
:1003100010B50446AFF300802046BDE81040FFF75B
:100320004EBF00000048704700020020014918201D
:10033000ABBEFEE7260002007047000010B50121A9
:10034000480201F071FB4FF4004001F041FB00F066
:1003500041F800F009F800F04BF80021014800F0E6
:10036000AFF810BD0024014000B58BB00121084654
:1003700001F03AFB134800F0D7FA134800901348F5
:100380000190002002901248007800EB40004000ED
:10039000039000200490802005904000069080008B
:1003A0000790002008904FF40050099000200A9018
:1003B0006946044800F062FB0121024800F0A8FAF7
:1003C0000BB000BD080002404C240140B2010020E7
:1003D0003900002008B50F20ADF8000000208DF88E
:1003E00003006946014800F0C9FC08BD0010014047
:1003F00000B585B02F4800F059F900200090012089
:100400008DF8040000208DF805004FF46020029064
:1004100000200390284800788DF810006946254890
:1004200000F086F9052301220A21224800F0A8F9EC
:10043000052302220B211F4800F0A2F90523032205
:100440000C211C4800F09CF9052304220D211948B9
:1004500000F096F90021194800F05AFA0E2000F039
:1004600049FA1548007800EB40004000134908396C
:10047000C8600121114800F04BFA01210D4800F03D
:100480007DF801210B4800F01BF80A4800F0D4F970
:1004900000BF084800F042F90028FAD1054800F0F2
:1004A000DBF900BF034800F02FF90028FAD105B0AE
:1004B00000BD000000240140390000200800024077
:1004C00021B1826842F00102826003E0826822F07A
:1004D000010282607047000030B587B0182101A882
:1004E000FFF7C7FEFFF784FF0A2000F041FB00245E
:1004F00008E001211D4800F0A4F90A2000F038FBB3
:10050000601CC4B2062CF4DD00241EE000250FE0C0
:1005100001A850F824001649097805FB0141154A45
:1005200032F81110084401A941F82400681CC5B232
:10053000062DEDDB01A850F82400062190FBF1F018
:1005400001A941F82400601CC4B209480078844223
:10055000DCDB01A800F01EF80021074800F0D8F904
:1005600000210248FFF7ACFF07B030BD0024014076
:1005700039000020B20100200800024021B1826849
:1005800042F48072826003E0826822F480728260AA
:10059000704700002DE9FC478246002459E05AF8D4
:1005A000240002F088FB07460022374B02F0FCF9DA
:1005B00005460022354B02F0A9FBCDE9000102F00F
:1005C0004BFB81460020C4EBC401314A11448871C1
:1005D0000A2199FBF1F201FB12903030C4EBC40107
:1005E0002B4A114448710A2199FBF1F090FBF1F27A
:1005F00001FB12003030C4EBC401254A11440871DC
:10060000642199FBF1F00A2190FBF1F201FB120049
:100610003030C4EBC4011E4A1144C8702E20C4EB14
:10062000C401114488704FF47A7199FBF1F00A21EA
:1006300090FBF1F201FB12003030C4EBC401144A0C
:100640001144487004F14100C4EBC4015054601CD3
:10065000C4B2104800788442A1DB0FA001F006FF6D
:10066000002407E0C4EBC401094A881801F0FEFE2B
:10067000601CC4B2074800788442F3DB0AA001F092
:10068000F5FEBDE8FC8700000000B04000C8A940AE
:10069000E20100203900002041444320446174619C
:1006A0002069733A090000000D0A000010B50446E5
:1006B0001248844208D10121401501F0C5F90021FA
:1006C000601501F0C1F917E00D48844208D10121FD
:1006D000001501F0B9F90021201501F0B5F90BE082
:1006E0000848844208D10121C80301F0ADF9002176
:1006F0004FF4004001F0A8F910BD000000240140B3
:1007000000280140003C0140014600208A6802F0B8
:1007100004020AB1012000E00020704701460020D9
:100720008A6802F008020AB1012000E00020704748
:1007300030B502460020002350680F4C20400D7950
:100740000C6844EA05242043506090680B4C20401C
:10075000D1E902542C434D7944EA4504204390608A
:10076000D06A20F470000C7C641EE4B2234340EA9B
:100770000350D06230BD0000FFFEF0FFFDF7F1FF37
:10078000F0B504460D4600200021092D11DDE0687A
:10079000A5F10A0606EB4607072606FA07F1884385
:1007A000A5F10A0606EB460603FA06F10843E060E7
:1007B0000CE0206905EB4507072606FA07F1884398
:1007C00005EB450603FA06F108432061072A0FDA14
:1007D000606B561E06EB86071F2606FA07F1884354
:1007E000561E06EB860605FA06F10843606322E012
:1007F0000D2A0FDA206BD61F06EB86071F2606FA96
:1008000007F18843D61F06EB860605FA06F1084372
:10081000206310E0E06AA2F10D0606EB86071F26B2
:1008200006FA07F18843A2F10D0606EB860605FAE3
:1008300006F10843E062F0BD816841F00801816083
:10084000704721B1826842F4A002826003E08268AE
:1008500022F4A00282607047816841F00401816047
:10086000704700BFFEE7000010B5214800680A2865
:1008700003DB1F4840680A281EDA1D480068052867
:1008800003DD1B48406805280BDC1948006818493F
:100890004968884202DC00F0DFFF0DE000F086FFCF
:1008A0000AE01348006812494968884202DC00F0F7
:1008B000A7FF01E000F04EFF0D4880680A2808DA23
:1008C0000B488068052802DC00F0C6FF01E000F05C
:1008D00097FF0748C0680A2808DA0548C068052855
:1008E00002DC00F063FF01E000F034FF10BD000007
:1008F0003C00002000F0805111B10349086001E084
:1009000002494860704700000404024000000240B1
:1009100021B1026842F00102026004E002684FF671
:10092000FE731A400260704701684FF6FE72114074
:1009300001600021016041608160C1604B498842D3
:1009400008D14A490839496841F00F01474A083A35
:1009500051608AE045491431884208D14349083939
:10096000496841F0F001414A083A51607DE03F4951
:100970002831884208D13D490839496841F47061FD
:100980003A4A083A516070E038493C31884208D10F
:1009900036490839496841F47041344A083A51608F
:1009A00063E032495031884208D1304908394968FA
:1009B00041F470212D4A083A516056E02B496431C8
:1009C000884208D129490839496841F47001274A09
:1009D000083A516049E025497831884208D12349D5
:1009E0000839496841F07061204A083A51603CE09A
:1009F0001F49884206D1011F096841F00F01021FFB
:100A0000116032E01A491431884208D11849091F8F
:100A1000096841F0F001164A121F116025E01449DF
:100A20002831884208D11249091F096841F47061D0
:100A30000F4A121F116018E00D493C31884208D15D
:100A40000B49091F096841F47041094A121F1160DE
:100A50000BE007495031884207D10549091F096851
:100A600041F47021024A121F1160704708000240D1
:100A7000080402400146486880B2704710B5002261
:100A8000026847F6F0739A430C6A8B6823430C693B
:100A900023434C6923438C692343CC6923434C6A29
:100AA00023438C6A23431A430260CB6843600B687C
:100AB00083604B68C36010BD7CB5044625460020AA
:100AC0008DF805000A2095FBF0F100FB1150303045
:100AD000C0B28DF804000A2095FBF0F00A2190FBCB
:100AE000F1F201FB12003030C0B28DF80300642037
:100AF00095FBF0F090FBF1F201FB12003030C0B238
:100B00008DF802004FF47A7095FBF0F090FBF1F253
:100B100001FB12003030C0B28DF8010042F21070BB
:100B200095FBF0F090FBF1F201FB12003030C0B207
:100B30008DF80000684601F099FC7CBD704700000C
:100B400000214FF0E0229161074951610749086097
:100B50000721116100BF054909680029FBD1062161
:100B60004FF0E0221161704740190100140000208D
:100B700000214FF0E022916148215161064908604F
:100B80000721116100BF044909680029FBD1062132
:100B90004FF0E022116170471400002010B5402092
:100BA00000F04AF8E0B110211E4800F0BBF94FF404
:100BB000FA70FFF7C5FF1C480068642808D31A487C
:100BC0000068323818490860098888B201F072F864
:100BD000402000F02BF81021124800F0A5F920E089
:100BE000802000F029F8E0B120210E4800F09AF9A9
:100BF0004FF4FA70FFF7A4FF0B480068B0F5617F6F
:100C000008D809480068323007490860098888B266
:100C100001F050F8802000F009F82021014800F090
:100C200083F910BD000801401C0000200149086044
:100C30007047000014040140014600200022074BC9
:100C40001B6803EA0102054B14331B680B4013B108
:100C50000AB1012000E000207047000000040140BC
:100C6000002123498279002A3AD00A461268036893
:100C70009A430B461A600A1D126803689A430B1DBB
:100C80001A60027911440A6803681A430A60184A14
:100C90000832126803689A43154B08331A601A1D0C
:100CA000126803689A43124B0C331A604279102A77
:100CB0000ED11A1F126803681A430D4B08331A60CD
:100CC0001A1D126803681A43094B0C331A600DE0B1
:100CD0000749427911440A6803681A430A6005E02B
:100CE000027911440A6803689A430A607047000059
:100CF000000401401FB500208DF8000007A16846E0
:100D0000FFF7ABFA08496846FFF7A7FA07A168465C
:100D1000FFF7A3FA684601F0B1FC1FBD41542B4315
:100D20004D47523D00000000310000200D0A000038
:100D300010B501211D2000F077FE10BD30B5002256
:100D40008B071C0F0F2303FA04F20B4B8C1053F884
:100D500024309343084C8D1044F8253023468C10E2
:100D600053F824308C07240F00FA04F42343024C78
:100D70008D1044F8253030BD080001402DE9F041C8
:100D8000024600250026002000230024002791F8B9
:100D900003C00CF00F0591F803C00CF0100CBCF16F
:100DA000000F03D091F802C04CEA050591F800C08D
:100DB000BCF1000F31D0146800202BE04FF0010C83
:100DC0000CFA00F3B1F800C00CEA03069E4220D1F1
:100DD00083004FF00F0C0CFA03F7BC4305FA03FC39
:100DE0004CEA040491F803C0BCF1280F06D14FF07F
:100DF000010C0CFA00FCC2F814C00AE091F803C020
:100E0000BCF1480F05D14FF0010C0CFA00FCC2F800
:100E100010C0401C0828D1D31460B1F800C0BCF148
:100E2000FF0F34DD546800202EE000F1080C4FF075
:100E3000010808FA0CF3B1F800C00CEA03069E4260
:100E400021D183004FF00F0C0CFA03F7BC4305FAD5
:100E500003FC4CEA040491F803C0BCF1280F05D14F
:100E600000F1080C08FA0CF8C2F8148091F803C0DD
:100E7000BCF1480F07D100F1080C4FF0010808FA47
:100E80000CF8C2F81080401C0828CED35460BDE88E
:100E9000F0810000F0B50A4600230024002100255F
:100EA00000F00046B6F1004F02D11D4EF16901E09D
:100EB0001B4E7168C0F3034583B200F44016B6F5CB
:100EC000401F08D121F07061154E766826F07066DB
:100ED000134F7E6012E000F48016B6F5801F06D135
:100EE000032606FA05F4A14341F0706106E0460DC1
:100EF000360103FA06F6B14341F0706122B1460DA6
:100F0000360103FA06F6314300F00046B6F1004F11
:100F100002D1034EF16101E0014E7160F0BD0000AD
:100F200000000140416170470161704710B514A095
:100F300001F0A4FB6420FFF703FE13A001F09EFB69
:100F40006420FFF7FDFD13A001F098FB4FF49670AD
:100F5000FFF7F6FD13A001F091FB4FF49670FFF739
:100F6000EFFD13A001F08AFB4FF49670FFF7E8FD48
:100F700013A001F083FB4FF49670FFF7E1FD10BD65
:100F800041540D0A0000000041542B4346554E3D8C
:100F9000310D0A0041542B51474E5353433D310DFF
:100FA0000A00000041542B434D47463D310D0A00D5
:100FB00041542B435343533D2247534D220D0A00C6
:100FC00041542B434E4D493D322C310D0A00000057
:100FD00070B51DA12148FFF723F90546002D32D039
:100FE00041212846FFF712F90546002D2BD01C4C55
:100FF0004E2004F8010B3A2004F8010BAD1C03E06D
:1010000028782070641C6D1C28782C28F8D14E217B
:101010002846FFF717F90546452004F8010B3A204A
:1010200004F8010BAD1C03E028782070641C6D1CD3
:1010300028782C28F8D100202070094801F016FAF1
:1010400008A001F013FA70BD2B51474E5353524480
:101050003A2024474E524D4300000000CC000020AF
:1010600094010020090A000010B519A11A48FFF7E1
:10107000D7F8044653212046FFF7C8F804462CB39E
:10108000A078302813D10020144908701448006853
:1010900020F00200124908600846006840F0010094
:1010A000086000F00DFC0FA001F0E0F90EE0A07860
:1010B00032280BD101200E4908700948006840F021
:1010C0000400074908600BA001F0D0F910BD000032
:1010D0005858215858000000CC000020350000204E
:1010E0000C0C01404D6F64653D300D0A000000009E
:1010F000360000204D6561737572655F54657374C9
:101100000D0A000010B507A001F0B8FA6420FFF73F
:1011100017FD06A001F0B2FA4FF49670FFF710FD2C
:1011200010BD000041540D0A0000000041542B5135
:10113000474E535352443D224E4D45412F524D434D
:10114000220D0A0070B50446074D03E02078287090
:101150006D1C641C20780D28F8D1034801F086F935
:1011600002A001F083F970BD210000200D0A0000EB
:1011700000BFFEE71FB517208DF80C0003208DF887
:101180000D0000208DF80E0001208DF80F0003A83F
:1011900000F088FA4020ADF8080048208DF80B00D8
:1011A00003208DF80A0002A91248FFF7E7FD80200E
:1011B000ADF8080002A90F48FFF7E0FD40200090BD
:1011C00000208DF804000C208DF8050001208DF81A
:1011D00006006846FFF744FD06210020FFF7AEFD3C
:1011E000802000906846FFF73BFD07210020FFF7B5
:1011F000A5FD1FBD0008014008B51020ADF8000096
:101200008DF8030003208DF8020069461348FFF7AC
:10121000B5FD2020ADF8000010208DF8030003205C
:101220008DF8020069460D48FFF7A8FD10210B4814
:10123000FFF778FE6420FFF783FC10210748FFF7D3
:1012400073FE20210548FFF76DFE6420FFF778FC50
:1012500020210248FFF768FE08BD00000008014099
:1012600030B58FB024208DF8000000208DF80100EB
:101270006D46FFF747FF2C480078012801D100F0A8
:1012800079F82A480078012805D141F28830FFF723
:1012900057FCFFF721F92648007830B12449684609
:1012A000FEF7DBFF002022490870002412E0C4EBA7
:1012B000C4002049085C58B1C4EBC4000A46811838
:1012C0006846FEF7CAFF0020C4EBC401194A505417
:1012D000601CC4B2184800788442E8DB17480078E4
:1012E000012809D116A001F0C1F8284600F028FC19
:1012F00017A001F0BBF808E01048007828B918A042
:1013000001F0B4F8284601F0B1F807480078012848
:1013100001D100F07BF81648006820F00400144961
:1013200008600FB030BD00003800002037000020FA
:1013300094010020E2010020390000203500002047
:101340004475616E2078696E203A0D0A0000000035
:1013500053656E64206F7665722E2E2E0D0A000086
:101360004D657373616765206973203A0D0A00004B
:101370000C0C014070B5002517E0002411E0104866
:10138000006800F00F000E490860084600680D492B
:10139000095D08430A4908600520FFF7D1FB601C7E
:1013A000C4B2082CEBDB681CC5B207480078854244
:1013B000E3DB0348006800F00F000149086070BDDE
:1013C0000C0C0140583100082000002008B5012114
:1013D0000C48FFF75FFDF720ADF8000010208DF8F6
:1013E000030003208DF8020069460748FFF7C6FC9A
:1013F00005480C30006820F0EF0003490C3108600C
:1014000008BD000000023000000C014070B500254E
:1014100017E0002411E01048006800F00F000E49AA
:101420000860084600680D49095D08430A490860DC
:101430000520FFF785FB601CC4B2082CEBDB681CA1
:10144000C5B2074800788542E3DB0348006800F036
:101450000F000149086070BD0C0C014060310008AC
:101460002000002010B5002400BF03E0204600F05B
:1014700007F8641C042CF9DBFFF7F6F910BD000037
:101480002DE9F041044600250020414908704148FB
:10149000006804F1080101228A4010433D490860B8
:1014A0001420FFF765FB00203B490880394800689D
:1014B00004F1080101228A4090433649086001E0A6
:1014C000681C85B23348001F006804F10C0101223A
:1014D0008A4010402F49091F086018B941F288302E
:1014E0008542EDDB2B48001F006804F10C0101224E
:1014F0008A4010402749091F0860002846D0264826
:101500002438008840F0010023492439088000BFB6
:101510002048001F006804F10C0101228A4010409D
:101520001C49091F086018B1194800780028EFD03D
:1015300019482438008820F0010017492439088010
:101540001348007801280AD16420144941F8240086
:1015500013A000F08BFF00200D49087016E000F08A
:101560000DFC0746104901F0CFFC064601F08EFD48
:101570000A4941F824000DA000F078FF074951F80E
:101580002400FFF799FA09A000F070FFBDE8F08190
:10159000180000200C0C0140240400403C000020F6
:1015A000313030090A0000000000A0410D0A00009F
:1015B00008B54FF47060ADF8000010208DF80300FE
:1015C00003208DF8020069460C48FFF7D7FB4FF463
:1015D0007040ADF8000048208DF8030069460748C8
:1015E000FFF7CCFB05480C30006820F4706003491D
:1015F0000C31086000F03AFD08BD0000000C01400D
:1016000000BFFEE770B510A11248FEF709FE0446C0
:1016100011A12046FEF704FE0446A4B10F4D241D7F
:1016200003E0207828706D1C641C20780D28F8D108
:1016300000202870094800F019FF09A000F016FFEB
:1016400001200849087070BD2B434D54493A2022AF
:10165000534D2200CC000020534D000031000020EB
:10166000090A0000300000200020084908700848DE
:10167000006840F001000649086000200549087034
:1016800005490870054908707047000035000020C2
:101690000C0C0140360000203700002038000020EC
:1016A0007047000070B5002100230F22C47804B3F6
:1016B000154C246804F4E064C4F5E064210AC1F127
:1016C0000403CA40447804FA03F1847814402143A7
:1016D00009010E4C0678A155047804F01F05012479
:1016E000AC4005786D11AD0005F1E025C5F800416D
:1016F00009E0047804F01F050124AC40044D06788D
:10170000761145F8264070BD0CED00E000E400E0E5
:1017100080E100E002490143024A11607047000085
:101720000000FA050CED00E010B500F0ADF84FF444
:1017300016714FF0804000F042FC4FF416714FF0EC
:10174000804000F03EFC4FF47A70FFF7F9F900F0AA
:10175000B7F810BD10B540F2EE214FF0804000F018
:101760002EFCFA21480700F02CFC4FF4FA70FFF72A
:10177000E7F90349098888B200F09CFA10BD00001F
:101780001C00002010B500F07FF840F2EE214FF071
:10179000804000F014FCFA21480700F012FC4FF4DE
:1017A0007A70FFF7CDF900F08BF810BD10B540F25C
:1017B000EE214FF0804000F002FCFA21480700F0D3
:1017C00000FC4FF47A70FFF7BBF90349098888B22F
:1017D00000F070FA10BD00001C00002008B51C20AD
:1017E0008DF8000002208DF8010003208DF8020022
:1017F00000208DF803006846FFF754FF08BD000085
:1018000010B5FA21480700F0DAFB40F2EE214FF064
:10181000804000F0D6FB4FF4FA70FFF791F90349CE
:10182000098888B200F046FA10BD00001C000020B4
:1018300010B500F029F8FA21480700F0C0FB40F28B
:10184000EE214FF0804000F0BCFB4FF47A70FFF7C0
:1018500077F900F035F810BD10B5FA21480700F00F
:10186000AEFB40F2EE214FF0804000F0AAFB4FF4B7
:101870007A70FFF765F90349098888B200F01AFA0F
:1018800010BD00001C00002008B50320ADF80000CA
:1018900018208DF8030003208DF8020069460648E1
:1018A000FFF76CFA0121880700F0AAFA03490988BA
:1018B00088B200F0FFF908BD000801401C000020BC
:1018C00008B500214FF0804000F09AFA0320ADF8EF
:1018D000000010208DF8030003208DF802006946F7
:1018E0000348FFF74BFA03210148FFF71BFB08BD34
:1018F000000801407047000000B589B0012108468A
:1019000000F082F8FFF76AFF0320ADF80400102012
:101910008DF8070003208DF8060001A92A48FFF77B
:101920002DFA03212848FFF7FDFA40F2E730ADF821
:101930001C000220ADF818000020ADF81E00ADF824
:101940001A0006A94FF0804000F03EFB6020ADF881
:1019500008000020ADF810000120ADF80A004FF497
:10196000FA70ADF80E0002A9000700F073FA082122
:10197000C80600F0BBFA0120ADF80A004FF4FA7077
:10198000ADF80E0002A9000700F0BAFA0821C80657
:1019900000F008FB0121880700F020FA1E214FF01B
:1019A000804000F02AFA00220221480700F048FA9D
:1019B00000214FF0804000F023FA4FF4FA70034901
:1019C000086009B000BD0000000801401C000020B4
:1019D00001460020034A506820F44040084350600C
:1019E000704700000010024029B1064A52690243C4
:1019F000044B5A6104E0034A52698243014B5A6125
:101A0000704700000010024029B1064AD269024323
:101A1000044BDA6104E0034AD2698243014BDA6184
:101A2000704700000010024029B1064A9269024343
:101A3000044B9A6104E0034A92698243014B9A6124
:101A4000704700000010024029B1064AD2680243E4
:101A5000044BDA6004E0034AD2688243014BDA6047
:101A6000704700000010024030B500210022002421
:101A700000232D4D6D6805F00C0121B1042905D01E
:101A8000082923D105E0294D056022E0274D056096
:101A90001FE0254D6D6805F47012234D6D6805F447
:101AA0008034022505EB92421CB9214D5543056057
:101AB0000BE01D4D6D6805F400351DB11C4D5543FF
:101AC000056002E0194D5543056002E0174D0560C1
:101AD00000BF00BF144D6D6805F0F0010909154DF8
:101AE0006B5C0568DD4045600F4D6D6805F4E06195
:101AF000090A104D6B5C4568DD4085600A4D6D68D4
:101B000005F46051C90A0B4D6B5C4568DD40C5604A
:101B1000054D6D6805F44041890B074D6B5CC56848
:101B2000B5FBF3F5056130BD0010024000127A00EC
:101B300000093D0000000020100000207047000058
:101B400010B588B0044600208DF8000015A000F004
:101B500095FD6420FEF7F4FF14A16846FEF77DFBB7
:101B600015496846FEF779FB14A16846FEF775FB38
:101B7000684600F083FD4FF4FA60FEF7E1FF20466F
:101B800000F07CFD4FF49670FEF7DAFF1A210D4845
:101B900000F091FE0120FEF7D3FF0BA000F06EFDD8
:101BA00008B010BD41540D0A0000000041542B4301
:101BB0004D47533D2200000021000020220D0A0065
:101BC00000000000004400400D0A000010B500F0C5
:101BD00001F810BD0CB5002001900090334800685A
:101BE00040F480303149086000BF3048006800F49C
:101BF000003000900198401C0190009818B901989D
:101C0000B0F5A06FF1D12948006800F4003010B1A0
:101C10000120009001E0002000900098012843D1AD
:101C20002348006840F01000214908600846006819
:101C300020F0030008600846006840F002000860D9
:101C40001A48406819494860084640684860084694
:101C5000406840F4806048600846406820F47C108A
:101C600048600846406840F4E8104860084600684C
:101C700040F08070086000BF0C48006800F0007001
:101C80000028F9D00948406820F00300074948605F
:101C90000846406840F00200486000BF03484068C2
:101CA00000F00C000828F9D10CBD00000010024023
:101CB0000020024010B5044621464FF0804000F05D
:101CC0007EF921464FF0804000F07BF910BD0428DA
:101CD00008D14FF0E021096941F004014FF0E02202
:101CE000116107E04FF0E021096921F004014FF094
:101CF000E0221161704710B50420FFF7E8FF0020D3
:101D00004FF0E02188610620086110BD024800689C
:101D1000401E0149086070471400002010B51348A8
:101D2000006840F001001149086008464068104909
:101D300008400E494860084600680E4908400B49B3
:101D400008600846006820F4802008600846406863
:101D500020F4FE0048604FF41F008860FFF736FF54
:101D60004FF000600449086010BD00000010024000
:101D70000000FFF8FFFFF6FE08ED00E02DE9F04758
:101D8000084800F049F8814600F0ACFF0746064AD3
:101D9000064B00F0BBFF054600F0D4FD044620468C
:101DA000BDE8F08700040040C3F5285C8FC2D53F32
:101DB00010B50121074800F032F850B10121054863
:101DC00000F01BF80121034800F014F8012002493B
:101DD000087010BD000400401800002021B10288E6
:101DE00042F08002028004E002884FF67F731A40BE
:101DF00002807047CA4302827047CA43028270471A
:101E000021B1028842F00102028004E002884FF60C
:101E1000FE731A40028070470146888C704730B5C7
:101E20000246002000230024158A05EA0103958953
:101E300005EA010413B10CB1012000E0002030BD1F
:101E40001AB183890B43838102E083898B438381A9
:101E50007047000070B5002400220023058C4FF667
:101E6000FE7635400584028C8388048B4FF68F758F
:101E70002C40B51E2C400D882C43751E2A400D8920
:101E80002A434D882A43144DA8420BD0134DA84233
:101E900008D0134DA84205D0124DA84202D0124DD1
:101EA000A84213D14FF6F7752A404D892A434FF6C1
:101EB000FB752A408D882A434FF6FF652B404FF66D
:101EC000FF552B408D892B43CD892B438380048381
:101ED000CD888586028470BD002C0140003401400D
:101EE0000040014000440140004801400A460021F2
:101EF000018B4FF6F77319401143018370470000BF
:101F000070B5002400220023058C4FF6EF76354093
:101F10000584028C8388048B48F6FF752C404FF6AD
:101F2000FF452C400D884FF6FF7606EA05252C4329
:101F30004FF6DF752A400D8906EA05152A434D88BC
:101F400006EA05152A43154DA84202D0144DA842B1
:101F50001DD14FF67F752A404D894FF6FF7606EA70
:101F600005152A434FF6BF752A408D8806EA0515E8
:101F70002A434FF6FF352B404FF2FF752B408D89DA
:101F800006EA85052B43CD8906EA85052B43838028
:101F90000483CD880587028470BD0000002C0140B9
:101FA000003401400A460021018B4FF2FF731940B3
:101FB0004FF6FF7303EA02231943018370478186BA
:101FC0007047018770470000002202881D4B98422D
:101FD0000ED01D4B98420BD0B0F1804F08D01B4B58
:101FE000984205D01A4B984202D01A4B984204D11D
:101FF0004FF68F731A404B881A43174B984207D0FD
:10200000164B984204D04FF6FF431A40CB881A4330
:1020100002808B8883850B8803850A4B98420BD0FE
:10202000094B984208D00E4B984205D00D4B984270
:1020300002D00D4B984201D10B7A03860123838293
:1020400070470000002C01400034014000040040B3
:1020500000080040000C0040001000400014004048
:102060000040014000440140004801401FB51D20D0
:102070008DF80C0002208DF80D0001208DF80E0067
:102080008DF80F0003A8FFF70DFB01210220FFF7D9
:10209000BBFC4FF6FE70ADF804004720ADF8000021
:1020A0000020ADF80600ADF8020069460748FFF7CA
:1020B0008BFF012211460548FFF7C2FE0348008846
:1020C00020F00100014908801FBD0000000400400D
:1020D0001FB54FF4165000900020ADF80400ADF885
:1020E0000600ADF80800ADF80C000C20ADF80A00B1
:1020F00069460F4800F06EFB002240F226610C4852
:1021000000F042FB002240F22551094800F03CFB60
:10211000012240F22441064800F036FB0122402112
:10212000034800F0F1FA0121014800F0E1FA1FBD77
:102130000038014000B58BB01048FEF7F5FB1048A1
:102140000090104801900020029078200390002019
:1021500004908020059000200690079008904FF48E
:102160000050099000200A9069460448FEF786FC5A
:1021700001210248FEF7CCFB0BB000BD5800024025
:10218000043801405400002008B54FF48060ADF8D9
:10219000000004208DF8030069460948FEF7EEFDB3
:1021A0004FF40070ADF8000003208DF802001820F5
:1021B0008DF8030069460248FEF7E0FD08BD000007
:1021C0000008014010B501218803FFF72DFC012113
:1021D0000846FFF709FC10BD1FB54FF416500090DC
:1021E0000020ADF80400ADF80600ADF80800ADF829
:1021F0000C000C20ADF80A0069460F4800F0EAFA1E
:10220000002240F226610C4800F0BEFA012240F2A2
:102210002551094800F0B8FA012240F2244106484D
:1022200000F0B2FA00224021034800F06DFA0121CB
:10223000014800F05DFA1FBD0044004010B50024C5
:1022400040F224412D4800F075FA002853D00021B7
:102250002B48FEF75DFB00BF1021284800F030FA44
:1022600040F22441254800F034FA24480488001D37
:10227000048840F22441001F00F05CFA0028EBD1F2
:102280001F48FEF7F7FBC0F1780400211D4A601CCF
:10229000115400F057F80121184800F03EFA30B10F
:1022A000164800F003FB0121144800F009FA082148
:1022B000124800F032FA30B1104800F0F7FA082165
:1022C0000E4800F0FDF902210C4800F026FA30B16A
:1022D0000A4800F0EBFA0221084800F0F1F94FF447
:1022E0006020FEF707FB782005495839C8650121B1
:1022F0000348FEF70DFB00BF10BD00000038014091
:10230000580002405400002010B5FFF75BFFFFF7B4
:102310003BFFFFF70FFFFFF7DBFE00F001F810BDFA
:1023200008B525208DF8000001208DF8010002205D
:102330008DF8020001208DF803006846FFF7B2F91E
:1023400008BD000010B542213B48FDF75FFF044681
:10235000002C6DD0A41C2078382845D009DCA0F1D1
:102360003100072862D2DFE800F015263033363915
:102370003C0063284BD006DC392839D061283AD09C
:10238000622853D13FE0642845D0652847D06628AD
:102390004CD148E00120294908702948006820F004
:1023A0000100274908600846006840F00200086004
:1023B000FFF76AFA3BE001202249087020480068D4
:1023C00040F004001E49086031E0FFF75DFA2EE09E
:1023D000FFF776FA2BE0FFF7A7F928E0FFF7D2F92D
:1023E00025E0FFF725FA22E0601CFEF7ABFE1EE0B9
:1023F000FEF79CFD1BE0012013490870607830381F
:102400001249087013E000200F4908700FE0012006
:102410000F4908700BE000200D49087007E00DA07F
:10242000FFF78EFB03E0FEF76DFE00E000BF00BF8C
:10243000014800F01BF810BD5400002035000020BA
:102440000C0C01403600002037000020390000202D
:102450003800002054686973206973206120546536
:102460007374696E672E0D0A0000000070B5044693
:10247000002517E040210D4800F04FF9012804D154
:10248000615D0A4800F017FA0AE000BF40210748E2
:1024900000F043F90028F9D0615D044800F00BFA20
:1024A000681C85B2605D0028E4D170BD0038014031
:1024B00008B50820ADF8000004208DF80300694637
:1024C0000848FEF75BFC0420ADF8000003208DF8FF
:1024D000020018208DF8030069460248FEF74EFC02
:1024E00008BD00000008014010B50121324800F08D
:1024F00014F930B1304800F0D9F901212E4800F02C
:10250000DFF808212C4800F008F930B12A4800F023
:10251000CDF90821284800F0D3F80221264800F020
:10252000FCF830B1244800F0C1F90221224800F043
:10253000C7F840F22551204800F0FCF8A0B1202156
:102540001D4800F0BDF840F225511B4800F0C1F8CD
:10255000194800F0ABF9C1B2184802880088401C45
:10256000164B18801648815440F22441124800F05E
:10257000E1F8F0B100BF10210F4800F0A1F840F2DF
:1025800024410D4800F0A5F80B480488001D04887C
:1025900040F22441001F00F0CDF80028EBD108499B
:1025A000064A1288885400F031F800200349088058
:1025B00000BF00BF10BD0000004400402E000020FE
:1025C000CC00002010B500F053F8FFF771FFFFF7C3
:1025D00003FE00F00BF80020024908700249087061
:1025E00010BD0000940100203100002008B5262015
:1025F0008DF8000000208DF8010001208DF8020008
:102600008DF803006846FFF74DF808BD10B50DA121
:102610001148FDF705FE10B1FEF7DAFC0EE00FA140
:102620000D48FDF7FDFD10B1FEF71EFD06E00DA102
:102630000948FDF7F5FD08B1FEF7E4FF0648FFF78E
:1026400015FF10BD2B51474E535352443A20244797
:102650004E524D4300000000CC0000205858215835
:10266000580000002B434D54493A2022534D22007C
:1026700010B501214804FFF7C7F910BD70B5044635
:10268000002517E040210D4800F047F8012804D14B
:10269000615D0A4800F00FF90AE000BF40210748D9
:1026A00000F03BF80028F9D0615D044800F003F920
:1026B000681C85B2605D0028E4D170BD0044004014
:1026C00001F40072B2F5007F00D100BFCA4302805E
:1026D000704710B50022002340F66A14A14200D1D1
:1026E00000BF0A1201249440A3B2DC43048010BD51
:1026F00021B1828942F40052828104E082894DF640
:10270000FF731A40828170471AB1838A0B43838218
:1027100002E0838A8B438382704702460020B1F532
:10272000007F00D100BF13880B400BB1012000E0F7
:102730000020704770B502460024002300250020C9
:1027400040F66A16B14200D100BFC1F3421501F054
:102750001F03012606FA03F3012D02D196893340A7
:1027600006E0022D02D1168A334001E0968A3340FA
:102770000C12012606FA04F41688344013B10CB189
:10278000012000E0002070BDF0B5034600240026C3
:102790000025002040F66A17B94200D100BF184654
:1027A000C1F3421401F01F06012707FA06F5012CB8
:1027B00001D10C3004E0022C01D1103000E01430C3
:1027C0001AB107682F43076002E00768AF4307604C
:1027D000F0BD00002DE9F04786B005460E46002406
:1027E000A24600BFA1460027B08900B100BF2F4616
:1027F0002C8A4CF6FF700440F08804432C82AC898C
:102800004EF6F3100440B0883189084371890843BB
:102810000443AC81AC8A4FF6FF400440B0890443C6
:10282000AC8201A8FFF720F91F48874202D1DDF8EA
:1028300010A001E0DDF80CA0A88900F4004040B130
:102840000AEBCA0000EB0A1031684900B0FBF1F84E
:1028500007E00AEBCA0000EB0A1031688900B0FB00
:10286000F1F86420B8FBF0F004012009642101FBB9
:102870001089A88900F4004040B1322000EBC90063
:10288000B0FBF1F000F00700044308E0322000EB59
:1028900009106421B0FBF1F000F00F0004432C811B
:1028A00006B0BDE8F0870000003801400146888886
:1028B000C0F308007047C1F308028280704700BF70
:1028C000FEE7000000F038F8FFF715FAFEF730FADF
:1028D000FFF71AFDFFF776FEFEF76AFEFDF72EFD05
:1028E000FEF748FCFEF788FCFFF706F8FEF76EFDE2
:1028F000FEF7BAFEFEF71AFB16E00C48007808B1A6
:10290000FEF7B0FD0A480078012804D1FEF7A8FCC4
:1029100000200749087007480078012804D1FEF715
:10292000E9F9002003490870E7E7000035000020BE
:10293000360000203000002010B54FF4A060FEF7F4
:10294000E9FE10BD21F00042A2F16052B2F5801FF5
:1029500001F0004328BFD2F17F6C0BD95FEA001C65
:1029600043EAC20242EB507018BF704728BF20F004
:1029700001007047B2F5801FBCBF184670474FEA90
:10298000410C1CF5001F02D2084600F0E0BB70B5F8
:1029900000F066FA00000089FFF7F6BF4FF0004034
:1029A000A0F58000704700002DE9C04130B4DFF889
:1029B000A0C23CEA111418BF3CEA131400F0EC80EA
:1029C00081EA03051CEA111444EAD57418BF1CEA15
:1029D000131500F0C780A4EB05044FF0004545EA4D
:1029E000C12145EAC32341EA505143EA525304F15D
:1029F0007F74994204F500344FEAC0204FEAC222A6
:102A000008BF904200F09C804FEA13650FF2401619
:102A1000765D4FEA134506FB05F7C7F1807706FBA5
:102A200007F74FEAD737A7FB03687642C8F5803827
:102A3000A7FB06CE38BFA8F1010807FB08E64FF058
:102A4000000EA6FB028CE6FB03CEDCF1000CCEF1FF
:102A5000004E38BFAEF1010EA6FB0C584FF0000738
:102A60004FF00005E6FB0E87A1FB08C6A0FB07CED2
:102A700016EB0E0645F10005E1FB076515F1E04E8A
:102A80007EBFA4F580345FEA46066D4116F18007EB
:102A900045F100054FEA17274FEA066647EA056742
:102AA000A6F1DE46B6F1805F4FEA15251FD93846FC
:102AB00024F0010C05EBC471BCF1FE6F01EB0C11AD
:102AC00002D8F0BCBDE8008124425CBF01F5801E45
:102AD0009EEAC47F02D4F0BCBDE80081244238D411
:102AE000F0BCA1F1C041BDE8004100F007BA4FEAD7
:102AF000D22242EA43524FEAD323A7FB02864FEA8F
:102B0000D02040EA415007FB03661EEA0E0F4FEA51
:102B1000D12105FB026658BFA6EB0056B6EB005666
:102B20004FEA520E4EEAC37E18EB0E0E56EB530ED2
:102B3000BDD518EB02085E417F1C55F10005B6E7D4
:102B40004FF480154FF000074FF000064FF00008DB
:102B5000ADE7F0BC4FF0000001F1C04101F00041D1
:102B6000BDE8008111EA0C1F0CEA131500D00CE03F
:102B700013EA0C1F00F025804FF00000F0BC81EA42
:102B8000030101F00041BDE80081F0BCBDE8004157
:102B900081EA030100F0B2B9F0BCBDE8004170B5B4
:102BA00000F05EF9097EFC3E00F007B881EA0301FF
:102BB0004FF0000001F00041704781EA030100F08E
:102BC0009DB9F0BCBDE800414FF0000021497047BD
:102BD000FFFDFBF9F7F5F4F2F0EEEDEBE9E8E6E4E2
:102BE000E3E1E0DEDDDBDAD8D7D5D4D3D1D0CFCD69
:102BF000CCCBCAC8C7C6C5C4C2C1C0BFBEBDBCBBA2
:102C0000BAB9B8B7B6B5B4B3B2B1B0AFAEADACAB9C
:102C1000AAA9A8A8A7A6A5A4A3A3A2A1A09F9F9E76
:102C20009D9C9C9B9A999998979796959594939328
:102C3000929191908F8F8E8E8D8C8C8B8B8A8989BF
:102C40008888878786858584848383828281818042
:102C50000000FF070000F87F4FEA41034FEA53539B
:102C6000A3F58063D3F11E03C8BFD3F1210C0CDDA3
:102C70004FF0004242EAC12242EA505232FA03FCCB
:102C80008CEAE17CACEBE1707047102BC4BF0020F4
:102C9000704703F5787CBCF1FF3F04D06FF0004231
:102CA00082EA2100704770B500F0DAF8499224807A
:102CB00000207047F2E710F0004248BF4042B0FAEF
:102CC00080F310FA03F10AD0C3F11D0303F580630A
:102CD0004FEA415002EB035202EBD12170474FF013
:102CE00000007047B0FA80F310FA03F10AD0C3F184
:102CF0001D0303F580634FEA41504FEA035202EB94
:102D0000D12170474FF0000070470000DFF848C144
:102D100070B51CEA111E1EBF1CEA13159EEA0C0FAB
:102D200095EA0C0F00F06F8081EA030423EA4C134C
:102D30004EEAD47E21EA4C1141F4801143F4801311
:102D4000AE44A1FB024CA0FB0365AEF17F7E3619B9
:102D500055EB0C05A1FB034C4CF10003A0FB021C3E
:102D600016EB0C06654153F10003094218BF46F00B
:102D7000010613F4007F0BD14FEA03314FEA05300F
:102D8000340341EA155140EA16506FF003020AE09D
:102D90004FEAC3214FEAC520F40241EA555140EA07
:102DA00056506FF0020202EB2E4201EB025585EA0B
:102DB000CE710AD05FEA440C18BF24F0004450F1F1
:102DC000000041F1000120EAD47040F2FE7C62452F
:102DD00000D270BDA84214BF4FF080444FF0404471
:102DE000002E08BF0024BEF1806FA8BFA1F1C04132
:102DF000BDE8704080F282804FF0000001F1C041D8
:102E000001F0004170479EEA0C0F0CEA131518BF41
:102E100095EA0C0F06D04FF0000081EA030E0EF089
:102E2000004170BD00F01CF88900013E00F007B8B9
:102E300000F009B84FEA430C5FEA5C5C08D081EA15
:102E4000030100F05BB84FEA410C5FEA5C5CF6D12D
:102E50004FF00000014970470000FF070000F87FB5
:102E60000EF1020E2EF0030E5EF8046B364205D40E
:102E7000012A43EB030515F5001F12D8012841EB89
:102E8000010C1CF5001F0CD80ED14FEAD17C15F5B2
:102E9000001F0CEB4C0C0CF1020C08BF4CEBD37C6C
:102EA00004E04FF0080C01E04FEAD37C0CEB4C053A
:102EB00026FA05F606F00706B6F1040C06D20EEB6C
:102EC000860CBDE870404CF0010C6047DFE80CF068
:102ED000090B02024FF000414FF00000A1F5002164
:102EE00070BD19461046012851EB010418BFD4F5F6
:102EF000001484BF002001F0004170BD0808A0F557
:102F000000114FEA310170474FF47F0C1CEAD012D8
:102F10001EBF1CEAD11392EA0C0F93EA0C0F00F0CB
:102F2000858090EA010F48BF42F4807240F4000CA3
:102F300041F400002CF07F4120F07F4000B5814239
:102F4000A2EB03020FF2081CACEB504EC0F10000E4
:102F50009EF800E04FEA4E0E00FB0EFC38BF490021
:102F60004FEA2C1C02F5FA020CFB0EF34FEACE1EC0
:102F70004FEA112C4FEAC1210EEB635E42EB224275
:102F80000EFB0CFC4FEA1C5300FB03114FEA112C03
:102F90004FEA01310EFB0CFC4FEADC4C00FB0C113C
:102FA000C14228BF09184CEB03335DF804EB10EB6A
:102FB000410143EBC250B2F57C0F38BF704729D5B1
:102FC00012F0F00F1CBF00F1C04000F0004070474D
:102FD000008182838485868788898B8C8D8E8F91F2
:102FE0009293959697999A9C9D9FA0A2A3A5A7A816
:102FF000AAACAEB0B2B3B5B7B9BCBEC0C2C5C7C942
:10300000CCCED1D4D7D9DCDFE2E6E9ECF0F3F7FAA5
:10301000FE0000004FEA400C0CF1807CBCF17E4FBA
:1030200028BF7047B0F1C04000F091B890EA010F9E
:103030000CEAD11348BF42F48072624538BF634541
:1030400007D213F47F0F16D080EA010000F0004091
:10305000704710B500F035F8097EFC3E00F005B869
:1030600080EA010000F00040704780EA010000F0B3
:10307000004000F06CB812F47F0F04BF02487047A4
:1030800080EA010000F063B80000C07F41000B0E31
:10309000D3F19E0208D950F400034FEA032323FA28
:1030A00002F048BF4042704710B500F00AF800BF78
:1030B00049922480002070476FF0004282EA20008D
:1030C00070470EF1020E2EF0030E5EF8044B244200
:1030D00004D44FEA4102B2F17F4F11D84FEA4003C6
:1030E000B3F17F4F0CD80ED14FEAD07CB2F17F4FB5
:1030F0000CEB4C0C0CF1020C08BF4CEBD17C04E047
:103100004FF0080C01E04FEAD17C0CEB4C0324FAA1
:1031100003F404F00704B4F1040C06D20EEB840CA3
:10312000BDE810404CF0010C6047DFE80CF00708E8
:1031300002024FF00040A0F5800010BD084642009A
:1031400018BFD2F1807288BF00F0004010BDFF218F
:1031500041EAD050C00570479080C04060203010D8
:103160001030206040C080908831000800000020AE
:103170003C0000006C010008C43100083C00002045
:103180002408000088010008000000000102030478
:1031900001020304060708090204060800000000F3
:1031A000000000000000000032313839333732307F
:1031B000373538310000000000000000000000003A
:0431C0000002000009
:0400000508000131BD
:00000001FF
